{
  "_format": "hh-sol-artifact-1",
  "contractName": "MyTrustFundDistribution",
  "sourceName": "contracts/MyTrustFundDistribution.sol",
  "abi": [
    {
      "inputs": [],
      "stateMutability": "payable",
      "type": "constructor"
    },
    {
      "inputs": [
        {
          "internalType": "address",
          "name": "_beneficiaryAddress",
          "type": "address"
        },
        {
          "internalType": "string",
          "name": "_beneficiaryName",
          "type": "string"
        }
      ],
      "name": "addBeneficiary",
      "outputs": [],
      "stateMutability": "nonpayable",
      "type": "function"
    },
    {
      "inputs": [
        {
          "internalType": "address",
          "name": "",
          "type": "address"
        }
      ],
      "name": "beneficiaryBalances",
      "outputs": [
        {
          "internalType": "uint256",
          "name": "",
          "type": "uint256"
        }
      ],
      "stateMutability": "view",
      "type": "function"
    },
    {
      "inputs": [
        {
          "internalType": "address",
          "name": "",
          "type": "address"
        }
      ],
      "name": "beneficiaryDetails",
      "outputs": [
        {
          "internalType": "string",
          "name": "beneficiaryName",
          "type": "string"
        },
        {
          "internalType": "address",
          "name": "beneficiaryAddress",
          "type": "address"
        },
        {
          "internalType": "uint256",
          "name": "lastTransferTime",
          "type": "uint256"
        },
        {
          "internalType": "uint256",
          "name": "amountSentInWindow",
          "type": "uint256"
        }
      ],
      "stateMutability": "view",
      "type": "function"
    },
    {
      "inputs": [
        {
          "internalType": "uint256",
          "name": "",
          "type": "uint256"
        }
      ],
      "name": "beneficiaryList",
      "outputs": [
        {
          "internalType": "string",
          "name": "beneficiaryName",
          "type": "string"
        },
        {
          "internalType": "address",
          "name": "beneficiaryAddress",
          "type": "address"
        },
        {
          "internalType": "uint256",
          "name": "lastTransferTime",
          "type": "uint256"
        },
        {
          "internalType": "uint256",
          "name": "amountSentInWindow",
          "type": "uint256"
        }
      ],
      "stateMutability": "view",
      "type": "function"
    },
    {
      "inputs": [
        {
          "internalType": "address",
          "name": "",
          "type": "address"
        }
      ],
      "name": "beneficiaryMap",
      "outputs": [
        {
          "internalType": "bool",
          "name": "",
          "type": "bool"
        }
      ],
      "stateMutability": "view",
      "type": "function"
    },
    {
      "inputs": [],
      "name": "deposit",
      "outputs": [],
      "stateMutability": "payable",
      "type": "function"
    },
    {
      "inputs": [
        {
          "internalType": "address",
          "name": "_beneficiaryAddress",
          "type": "address"
        }
      ],
      "name": "getBeneficiaryBalance",
      "outputs": [
        {
          "internalType": "uint256",
          "name": "",
          "type": "uint256"
        }
      ],
      "stateMutability": "view",
      "type": "function"
    },
    {
      "inputs": [],
      "name": "getOwnerBalance",
      "outputs": [
        {
          "internalType": "uint256",
          "name": "",
          "type": "uint256"
        }
      ],
      "stateMutability": "view",
      "type": "function"
    },
    {
      "inputs": [],
      "name": "ownerAddress",
      "outputs": [
        {
          "internalType": "address",
          "name": "",
          "type": "address"
        }
      ],
      "stateMutability": "view",
      "type": "function"
    },
    {
      "inputs": [],
      "name": "ownerBalance",
      "outputs": [
        {
          "internalType": "uint256",
          "name": "",
          "type": "uint256"
        }
      ],
      "stateMutability": "view",
      "type": "function"
    },
    {
      "inputs": [
        {
          "internalType": "address payable",
          "name": "_beneficiaryAddress",
          "type": "address"
        },
        {
          "internalType": "uint256",
          "name": "_amount",
          "type": "uint256"
        }
      ],
      "name": "sendToBeneficiary",
      "outputs": [],
      "stateMutability": "nonpayable",
      "type": "function"
    },
    {
      "inputs": [],
      "name": "showBeneficiary",
      "outputs": [
        {
          "components": [
            {
              "internalType": "string",
              "name": "beneficiaryName",
              "type": "string"
            },
            {
              "internalType": "address",
              "name": "beneficiaryAddress",
              "type": "address"
            },
            {
              "internalType": "uint256",
              "name": "lastTransferTime",
              "type": "uint256"
            },
            {
              "internalType": "uint256",
              "name": "amountSentInWindow",
              "type": "uint256"
            }
          ],
          "internalType": "struct MyTrustFundDistribution.Beneficiary[]",
          "name": "",
          "type": "tuple[]"
        }
      ],
      "stateMutability": "view",
      "type": "function"
    }
  ],
  "bytecode": "0x6080604052336000806101000a81548173ffffffffffffffffffffffffffffffffffffffff021916908373ffffffffffffffffffffffffffffffffffffffff16021790555034600181905550611ae78061005a6000396000f3fe6080604052600436106100a75760003560e01c80639e761bbb116100645780639e761bbb146101e5578063b047a94614610225578063bedcf00314610250578063c6cac4f61461027b578063d0e30db0146102b8578063d21512c1146102c2576100a7565b806307bcb6ef146100ac578063294a5727146100e957806332b578e5146101295780635664865a14610152578063590791f21461018f5780638f84aa09146101ba575b600080fd5b3480156100b857600080fd5b506100d360048036038101906100ce9190610eb4565b6102eb565b6040516100e09190610efa565b60405180910390f35b3480156100f557600080fd5b50610110600480360381019061010b9190610eb4565b6103c0565b6040516101209493929190610fb4565b60405180910390f35b34801561013557600080fd5b50610150600480360381019061014b9190611135565b610498565b005b34801561015e57600080fd5b5061017960048036038101906101749190610eb4565b61079f565b6040516101869190610efa565b60405180910390f35b34801561019b57600080fd5b506101a46107b7565b6040516101b19190610efa565b60405180910390f35b3480156101c657600080fd5b506101cf6107c1565b6040516101dc9190611191565b60405180910390f35b3480156101f157600080fd5b5061020c600480360381019061020791906111d8565b6107e5565b60405161021c9493929190610fb4565b60405180910390f35b34801561023157600080fd5b5061023a6108cd565b6040516102479190611392565b60405180910390f35b34801561025c57600080fd5b50610265610a28565b6040516102729190610efa565b60405180910390f35b34801561028757600080fd5b506102a2600480360381019061029d9190610eb4565b610a2e565b6040516102af91906113cf565b60405180910390f35b6102c0610a4e565b005b3480156102ce57600080fd5b506102e960048036038101906102e49190611428565b610af7565b005b6000600360008373ffffffffffffffffffffffffffffffffffffffff1673ffffffffffffffffffffffffffffffffffffffff16815260200190815260200160002060009054906101000a900460ff16610379576040517f08c379a0000000000000000000000000000000000000000000000000000000008152600401610370906114b4565b60405180910390fd5b600460008373ffffffffffffffffffffffffffffffffffffffff1673ffffffffffffffffffffffffffffffffffffffff168152602001908152602001600020549050919050565b60056020528060005260406000206000915090508060000180546103e390611503565b80601f016020809104026020016040519081016040528092919081815260200182805461040f90611503565b801561045c5780601f106104315761010080835404028352916020019161045c565b820191906000526020600020905b81548152906001019060200180831161043f57829003601f168201915b5050505050908060010160009054906101000a900473ffffffffffffffffffffffffffffffffffffffff16908060020154908060030154905084565b60008054906101000a900473ffffffffffffffffffffffffffffffffffffffff1673ffffffffffffffffffffffffffffffffffffffff163373ffffffffffffffffffffffffffffffffffffffff1614610526576040517f08c379a000000000000000000000000000000000000000000000000000000000815260040161051d90611580565b60405180910390fd5b600360008373ffffffffffffffffffffffffffffffffffffffff1673ffffffffffffffffffffffffffffffffffffffff16815260200190815260200160002060009054906101000a900460ff16156105b3576040517f08c379a00000000000000000000000000000000000000000000000000000000081526004016105aa906115ec565b60405180910390fd5b600060405180608001604052808381526020018473ffffffffffffffffffffffffffffffffffffffff168152602001428152602001600081525090506002819080600181540180825580915050600190039060005260206000209060040201600090919091909150600082015181600001908161063091906117b8565b5060208201518160010160006101000a81548173ffffffffffffffffffffffffffffffffffffffff021916908373ffffffffffffffffffffffffffffffffffffffff160217905550604082015181600201556060820151816003015550506001600360008573ffffffffffffffffffffffffffffffffffffffff1673ffffffffffffffffffffffffffffffffffffffff16815260200190815260200160002060006101000a81548160ff02191690831515021790555080600560008573ffffffffffffffffffffffffffffffffffffffff1673ffffffffffffffffffffffffffffffffffffffff168152602001908152602001600020600082015181600001908161073b91906117b8565b5060208201518160010160006101000a81548173ffffffffffffffffffffffffffffffffffffffff021916908373ffffffffffffffffffffffffffffffffffffffff1602179055506040820151816002015560608201518160030155905050505050565b60046020528060005260406000206000915090505481565b6000600154905090565b60008054906101000a900473ffffffffffffffffffffffffffffffffffffffff1681565b600281815481106107f557600080fd5b906000526020600020906004020160009150905080600001805461081890611503565b80601f016020809104026020016040519081016040528092919081815260200182805461084490611503565b80156108915780601f1061086657610100808354040283529160200191610891565b820191906000526020600020905b81548152906001019060200180831161087457829003601f168201915b5050505050908060010160009054906101000a900473ffffffffffffffffffffffffffffffffffffffff16908060020154908060030154905084565b60606002805480602002602001604051908101604052809291908181526020016000905b82821015610a1f578382906000526020600020906004020160405180608001604052908160008201805461092490611503565b80601f016020809104026020016040519081016040528092919081815260200182805461095090611503565b801561099d5780601f106109725761010080835404028352916020019161099d565b820191906000526020600020905b81548152906001019060200180831161098057829003601f168201915b505050505081526020016001820160009054906101000a900473ffffffffffffffffffffffffffffffffffffffff1673ffffffffffffffffffffffffffffffffffffffff1673ffffffffffffffffffffffffffffffffffffffff16815260200160028201548152602001600382015481525050815260200190600101906108f1565b50505050905090565b60015481565b60036020528060005260406000206000915054906101000a900460ff1681565b60008054906101000a900473ffffffffffffffffffffffffffffffffffffffff1673ffffffffffffffffffffffffffffffffffffffff163373ffffffffffffffffffffffffffffffffffffffff1614610adc576040517f08c379a0000000000000000000000000000000000000000000000000000000008152600401610ad390611580565b60405180910390fd5b3460016000828254610aee91906118b9565b92505081905550565b60008054906101000a900473ffffffffffffffffffffffffffffffffffffffff1673ffffffffffffffffffffffffffffffffffffffff163373ffffffffffffffffffffffffffffffffffffffff1614610b85576040517f08c379a0000000000000000000000000000000000000000000000000000000008152600401610b7c90611580565b60405180910390fd5b600360008373ffffffffffffffffffffffffffffffffffffffff1673ffffffffffffffffffffffffffffffffffffffff16815260200190815260200160002060009054906101000a900460ff16610c11576040517f08c379a0000000000000000000000000000000000000000000000000000000008152600401610c08906114b4565b60405180910390fd5b806001541015610c56576040517f08c379a0000000000000000000000000000000000000000000000000000000008152600401610c4d90611939565b60405180910390fd5b671bc16d674ec80000811115610ca1576040517f08c379a0000000000000000000000000000000000000000000000000000000008152600401610c98906119cb565b60405180910390fd5b6000600560008473ffffffffffffffffffffffffffffffffffffffff1673ffffffffffffffffffffffffffffffffffffffff168152602001908152602001600020905062278d008160020154610cf791906118b9565b421115610d0957600081600301819055505b671bc16d674ec80000828260030154610d2291906118b9565b1115610d63576040517f08c379a0000000000000000000000000000000000000000000000000000000008152600401610d5a90611a5d565b60405180910390fd5b42816002018190555081816003016000828254610d8091906118b9565b925050819055508160016000828254610d999190611a7d565b925050819055508273ffffffffffffffffffffffffffffffffffffffff166108fc839081150290604051600060405180830381858888f19350505050158015610de6573d6000803e3d6000fd5b5081600460008573ffffffffffffffffffffffffffffffffffffffff1673ffffffffffffffffffffffffffffffffffffffff1681526020019081526020016000206000828254610e3691906118b9565b92505081905550505050565b6000604051905090565b600080fd5b600080fd5b600073ffffffffffffffffffffffffffffffffffffffff82169050919050565b6000610e8182610e56565b9050919050565b610e9181610e76565b8114610e9c57600080fd5b50565b600081359050610eae81610e88565b92915050565b600060208284031215610eca57610ec9610e4c565b5b6000610ed884828501610e9f565b91505092915050565b6000819050919050565b610ef481610ee1565b82525050565b6000602082019050610f0f6000830184610eeb565b92915050565b600081519050919050565b600082825260208201905092915050565b60005b83811015610f4f578082015181840152602081019050610f34565b60008484015250505050565b6000601f19601f8301169050919050565b6000610f7782610f15565b610f818185610f20565b9350610f91818560208601610f31565b610f9a81610f5b565b840191505092915050565b610fae81610e76565b82525050565b60006080820190508181036000830152610fce8187610f6c565b9050610fdd6020830186610fa5565b610fea6040830185610eeb565b610ff76060830184610eeb565b95945050505050565b600080fd5b600080fd5b7f4e487b7100000000000000000000000000000000000000000000000000000000600052604160045260246000fd5b61104282610f5b565b810181811067ffffffffffffffff821117156110615761106061100a565b5b80604052505050565b6000611074610e42565b90506110808282611039565b919050565b600067ffffffffffffffff8211156110a05761109f61100a565b5b6110a982610f5b565b9050602081019050919050565b82818337600083830152505050565b60006110d86110d384611085565b61106a565b9050828152602081018484840111156110f4576110f3611005565b5b6110ff8482856110b6565b509392505050565b600082601f83011261111c5761111b611000565b5b813561112c8482602086016110c5565b91505092915050565b6000806040838503121561114c5761114b610e4c565b5b600061115a85828601610e9f565b925050602083013567ffffffffffffffff81111561117b5761117a610e51565b5b61118785828601611107565b9150509250929050565b60006020820190506111a66000830184610fa5565b92915050565b6111b581610ee1565b81146111c057600080fd5b50565b6000813590506111d2816111ac565b92915050565b6000602082840312156111ee576111ed610e4c565b5b60006111fc848285016111c3565b91505092915050565b600081519050919050565b600082825260208201905092915050565b6000819050602082019050919050565b600082825260208201905092915050565b600061124d82610f15565b6112578185611231565b9350611267818560208601610f31565b61127081610f5b565b840191505092915050565b61128481610e76565b82525050565b61129381610ee1565b82525050565b600060808301600083015184820360008601526112b68282611242565b91505060208301516112cb602086018261127b565b5060408301516112de604086018261128a565b5060608301516112f1606086018261128a565b508091505092915050565b60006113088383611299565b905092915050565b6000602082019050919050565b600061132882611205565b6113328185611210565b93508360208202850161134485611221565b8060005b85811015611380578484038952815161136185826112fc565b945061136c83611310565b925060208a01995050600181019050611348565b50829750879550505050505092915050565b600060208201905081810360008301526113ac818461131d565b905092915050565b60008115159050919050565b6113c9816113b4565b82525050565b60006020820190506113e460008301846113c0565b92915050565b60006113f582610e56565b9050919050565b611405816113ea565b811461141057600080fd5b50565b600081359050611422816113fc565b92915050565b6000806040838503121561143f5761143e610e4c565b5b600061144d85828601611413565b925050602061145e858286016111c3565b9150509250929050565b7f41646472657373206e6f7420612062656e656669636961727900000000000000600082015250565b600061149e601983610f20565b91506114a982611468565b602082019050919050565b600060208201905081810360008301526114cd81611491565b9050919050565b7f4e487b7100000000000000000000000000000000000000000000000000000000600052602260045260246000fd5b6000600282049050600182168061151b57607f821691505b60208210810361152e5761152d6114d4565b5b50919050565b7f4e6f207065726d697373696f6e00000000000000000000000000000000000000600082015250565b600061156a600d83610f20565b915061157582611534565b602082019050919050565b600060208201905081810360008301526115998161155d565b9050919050565b7f42656e656669636961727920616c726561647920657869737400000000000000600082015250565b60006115d6601983610f20565b91506115e1826115a0565b602082019050919050565b60006020820190508181036000830152611605816115c9565b9050919050565b60008190508160005260206000209050919050565b60006020601f8301049050919050565b600082821b905092915050565b60006008830261166e7fffffffffffffffffffffffffffffffffffffffffffffffffffffffffffffffff82611631565b6116788683611631565b95508019841693508086168417925050509392505050565b6000819050919050565b60006116b56116b06116ab84610ee1565b611690565b610ee1565b9050919050565b6000819050919050565b6116cf8361169a565b6116e36116db826116bc565b84845461163e565b825550505050565b600090565b6116f86116eb565b6117038184846116c6565b505050565b5b818110156117275761171c6000826116f0565b600181019050611709565b5050565b601f82111561176c5761173d8161160c565b61174684611621565b81016020851015611755578190505b61176961176185611621565b830182611708565b50505b505050565b600082821c905092915050565b600061178f60001984600802611771565b1980831691505092915050565b60006117a8838361177e565b9150826002028217905092915050565b6117c182610f15565b67ffffffffffffffff8111156117da576117d961100a565b5b6117e48254611503565b6117ef82828561172b565b600060209050601f8311600181146118225760008415611810578287015190505b61181a858261179c565b865550611882565b601f1984166118308661160c565b60005b8281101561185857848901518255600182019150602085019450602081019050611833565b868310156118755784890151611871601f89168261177e565b8355505b6001600288020188555050505b505050505050565b7f4e487b7100000000000000000000000000000000000000000000000000000000600052601160045260246000fd5b60006118c482610ee1565b91506118cf83610ee1565b92508282019050808211156118e7576118e661188a565b5b92915050565b7f496e73756666696369656e742062616c616e6365000000000000000000000000600082015250565b6000611923601483610f20565b915061192e826118ed565b602082019050919050565b6000602082019050818103600083015261195281611916565b9050919050565b7f596f752063616e277420676574206d6f7265207468616e20326574686572206960008201527f6e20612073696e676c65207472616e73616374696f6e00000000000000000000602082015250565b60006119b5603683610f20565b91506119c082611959565b604082019050919050565b600060208201905081810360008301526119e4816119a8565b9050919050565b7f596f752063616e27742073656e64206d6f7265207468616e203220457468657260008201527f20696e206120312d6d6f6e746820706572696f64000000000000000000000000602082015250565b6000611a47603483610f20565b9150611a52826119eb565b604082019050919050565b60006020820190508181036000830152611a7681611a3a565b9050919050565b6000611a8882610ee1565b9150611a9383610ee1565b9250828203905081811115611aab57611aaa61188a565b5b9291505056fea2646970667358221220bc13b5232c9edd652936823fd51865632eb34d251aecdd9cea97a979a761e20064736f6c63430008180033",
  "linkReferences": {},
  "deployedLinkReferences": {}
}